{
  "contractName": "Ballot",
  "abi": [
    {
      "inputs": [
        {
          "internalType": "string",
          "name": "_electionName",
          "type": "string"
        },
        {
          "internalType": "uint256",
          "name": "_electionDuration",
          "type": "uint256"
        }
      ],
      "stateMutability": "nonpayable",
      "type": "constructor"
    },
    {
      "anonymous": false,
      "inputs": [
        {
          "indexed": true,
          "internalType": "address",
          "name": "previousOwner",
          "type": "address"
        },
        {
          "indexed": true,
          "internalType": "address",
          "name": "newOwner",
          "type": "address"
        }
      ],
      "name": "OwnershipTransferred",
      "type": "event"
    },
    {
      "anonymous": false,
      "inputs": [
        {
          "indexed": true,
          "internalType": "string",
          "name": "contestantName",
          "type": "string"
        },
        {
          "indexed": false,
          "internalType": "uint256",
          "name": "contestantVotesCount",
          "type": "uint256"
        }
      ],
      "name": "RevealResult",
      "type": "event"
    },
    {
      "anonymous": false,
      "inputs": [
        {
          "indexed": true,
          "internalType": "uint256",
          "name": "contestantId",
          "type": "uint256"
        }
      ],
      "name": "Vote",
      "type": "event"
    },
    {
      "inputs": [],
      "name": "contestantCount",
      "outputs": [
        {
          "internalType": "uint256",
          "name": "",
          "type": "uint256"
        }
      ],
      "stateMutability": "view",
      "type": "function"
    },
    {
      "inputs": [
        {
          "internalType": "uint256",
          "name": "",
          "type": "uint256"
        }
      ],
      "name": "contestants",
      "outputs": [
        {
          "internalType": "uint256",
          "name": "id",
          "type": "uint256"
        },
        {
          "internalType": "string",
          "name": "name",
          "type": "string"
        },
        {
          "internalType": "string",
          "name": "party",
          "type": "string"
        },
        {
          "internalType": "uint256",
          "name": "votesCount",
          "type": "uint256"
        }
      ],
      "stateMutability": "view",
      "type": "function"
    },
    {
      "inputs": [],
      "name": "electionDuration",
      "outputs": [
        {
          "internalType": "uint256",
          "name": "",
          "type": "uint256"
        }
      ],
      "stateMutability": "view",
      "type": "function"
    },
    {
      "inputs": [],
      "name": "electionName",
      "outputs": [
        {
          "internalType": "string",
          "name": "",
          "type": "string"
        }
      ],
      "stateMutability": "view",
      "type": "function"
    },
    {
      "inputs": [],
      "name": "owner",
      "outputs": [
        {
          "internalType": "address",
          "name": "",
          "type": "address"
        }
      ],
      "stateMutability": "view",
      "type": "function"
    },
    {
      "inputs": [],
      "name": "renounceOwnership",
      "outputs": [],
      "stateMutability": "nonpayable",
      "type": "function"
    },
    {
      "inputs": [],
      "name": "startTime",
      "outputs": [
        {
          "internalType": "uint256",
          "name": "",
          "type": "uint256"
        }
      ],
      "stateMutability": "view",
      "type": "function"
    },
    {
      "inputs": [
        {
          "internalType": "address",
          "name": "newOwner",
          "type": "address"
        }
      ],
      "name": "transferOwnership",
      "outputs": [],
      "stateMutability": "nonpayable",
      "type": "function"
    },
    {
      "inputs": [
        {
          "internalType": "address",
          "name": "",
          "type": "address"
        }
      ],
      "name": "voters",
      "outputs": [
        {
          "internalType": "uint256",
          "name": "age",
          "type": "uint256"
        },
        {
          "internalType": "bool",
          "name": "voted",
          "type": "bool"
        },
        {
          "internalType": "bool",
          "name": "votable",
          "type": "bool"
        }
      ],
      "stateMutability": "view",
      "type": "function"
    },
    {
      "inputs": [
        {
          "internalType": "string",
          "name": "_name",
          "type": "string"
        },
        {
          "internalType": "string",
          "name": "_party",
          "type": "string"
        }
      ],
      "name": "addContestant",
      "outputs": [
        {
          "internalType": "bool",
          "name": "",
          "type": "bool"
        }
      ],
      "stateMutability": "nonpayable",
      "type": "function"
    },
    {
      "inputs": [
        {
          "internalType": "uint256",
          "name": "_id",
          "type": "uint256"
        }
      ],
      "name": "getContestant",
      "outputs": [
        {
          "internalType": "uint256",
          "name": "",
          "type": "uint256"
        },
        {
          "internalType": "string",
          "name": "",
          "type": "string"
        },
        {
          "internalType": "string",
          "name": "",
          "type": "string"
        }
      ],
      "stateMutability": "view",
      "type": "function"
    },
    {
      "inputs": [
        {
          "internalType": "address",
          "name": "person",
          "type": "address"
        }
      ],
      "name": "authorizeVoter",
      "outputs": [
        {
          "internalType": "bool",
          "name": "",
          "type": "bool"
        }
      ],
      "stateMutability": "nonpayable",
      "type": "function"
    },
    {
      "inputs": [
        {
          "internalType": "uint256",
          "name": "contestantId",
          "type": "uint256"
        },
        {
          "internalType": "uint256",
          "name": "_age",
          "type": "uint256"
        }
      ],
      "name": "vote",
      "outputs": [
        {
          "internalType": "bool",
          "name": "",
          "type": "bool"
        }
      ],
      "stateMutability": "nonpayable",
      "type": "function"
    },
    {
      "inputs": [],
      "name": "end",
      "outputs": [],
      "stateMutability": "nonpayable",
      "type": "function"
    }
  ],
  "bytecode": "0x60806040523480156200001157600080fd5b50604051620021f4380380620021f4833981810160405281019062000037919062000697565b6200004833620001ee60201b60201c565b8160069080519060200190620000609291906200040f565b508060018190555042600281905550620000eb6040518060400160405280600981526020017f47696674204f70696100000000000000000000000000000000000000000000008152506040518060400160405280600381526020017f534c4e0000000000000000000000000000000000000000000000000000000000815250620002b260201b60201c565b50620001686040518060400160405280600f81526020017f427568617269204d6f68616d6d656400000000000000000000000000000000008152506040518060400160405280600381526020017f4150430000000000000000000000000000000000000000000000000000000000815250620002b260201b60201c565b50620001e56040518060400160405280600f81526020017f4174696b752041627562616b61727200000000000000000000000000000000008152506040518060400160405280600381526020017f5044500000000000000000000000000000000000000000000000000000000000815250620002b260201b60201c565b50505062000862565b60008060009054906101000a900473ffffffffffffffffffffffffffffffffffffffff169050816000806101000a81548173ffffffffffffffffffffffffffffffffffffffff021916908373ffffffffffffffffffffffffffffffffffffffff1602179055508173ffffffffffffffffffffffffffffffffffffffff168173ffffffffffffffffffffffffffffffffffffffff167f8be0079c531659141344cd1fd0a4f28419497f9722a3daafe3b4186f6b6457e060405160405180910390a35050565b60003373ffffffffffffffffffffffffffffffffffffffff16620002db620003e660201b60201c565b73ffffffffffffffffffffffffffffffffffffffff161462000334576040517f08c379a00000000000000000000000000000000000000000000000000000000081526004016200032b906200075e565b60405180910390fd5b600460008154809291906200034990620007af565b9190505550604051806080016040528060045481526020018481526020018381526020016000815250600360006004548152602001908152602001600020600082015181600001556020820151816001019080519060200190620003af9291906200040f565b506040820151816002019080519060200190620003ce9291906200040f565b50606082015181600301559050506001905092915050565b60008060009054906101000a900473ffffffffffffffffffffffffffffffffffffffff16905090565b8280546200041d906200082c565b90600052602060002090601f0160209004810192826200044157600085556200048d565b82601f106200045c57805160ff19168380011785556200048d565b828001600101855582156200048d579182015b828111156200048c5782518255916020019190600101906200046f565b5b5090506200049c9190620004a0565b5090565b5b80821115620004bb576000816000905550600101620004a1565b5090565b6000604051905090565b600080fd5b600080fd5b600080fd5b600080fd5b6000601f19601f8301169050919050565b7f4e487b7100000000000000000000000000000000000000000000000000000000600052604160045260246000fd5b6200052882620004dd565b810181811067ffffffffffffffff821117156200054a5762000549620004ee565b5b80604052505050565b60006200055f620004bf565b90506200056d82826200051d565b919050565b600067ffffffffffffffff82111562000590576200058f620004ee565b5b6200059b82620004dd565b9050602081019050919050565b60005b83811015620005c8578082015181840152602081019050620005ab565b83811115620005d8576000848401525b50505050565b6000620005f5620005ef8462000572565b62000553565b905082815260208101848484011115620006145762000613620004d8565b5b62000621848285620005a8565b509392505050565b600082601f830112620006415762000640620004d3565b5b815162000653848260208601620005de565b91505092915050565b6000819050919050565b62000671816200065c565b81146200067d57600080fd5b50565b600081519050620006918162000666565b92915050565b60008060408385031215620006b157620006b0620004c9565b5b600083015167ffffffffffffffff811115620006d257620006d1620004ce565b5b620006e08582860162000629565b9250506020620006f38582860162000680565b9150509250929050565b600082825260208201905092915050565b7f4f776e61626c653a2063616c6c6572206973206e6f7420746865206f776e6572600082015250565b600062000746602083620006fd565b915062000753826200070e565b602082019050919050565b60006020820190508181036000830152620007798162000737565b9050919050565b7f4e487b7100000000000000000000000000000000000000000000000000000000600052601160045260246000fd5b6000620007bc826200065c565b91507fffffffffffffffffffffffffffffffffffffffffffffffffffffffffffffffff821415620007f257620007f162000780565b5b600182019050919050565b7f4e487b7100000000000000000000000000000000000000000000000000000000600052602260045260246000fd5b600060028204905060018216806200084557607f821691505b602082108114156200085c576200085b620007fd565b5b50919050565b61198280620008726000396000f3fe608060405234801561001057600080fd5b50600436106100ea5760003560e01c8063a3ec138d1161008c578063dfd50f5211610066578063dfd50f5214610253578063efbe1c1c14610286578063f2fde38b14610290578063fd47b368146102ac576100ea565b8063a3ec138d146101c1578063b384abef146101f3578063c8fdc2ea14610223576100ea565b8063715018a6116100c8578063715018a61461015d57806378e979251461016757806385e8e7a7146101855780638da5cb5b146101a3576100ea565b80630559dd65146100ef5780631bf806cb14610121578063613711c21461013f575b600080fd5b61010960048036038101906101049190610f94565b6102dc565b60405161011893929190611069565b60405180910390f35b610129610449565b60405161013691906110ae565b60405180910390f35b61014761044f565b60405161015491906110ae565b60405180910390f35b610165610455565b005b61016f6104d6565b60405161017c91906110ae565b60405180910390f35b61018d6104dc565b60405161019a91906110c9565b60405180910390f35b6101ab61056a565b6040516101b8919061112c565b60405180910390f35b6101db60048036038101906101d69190611173565b610593565b6040516101ea939291906111bb565b60405180910390f35b61020d600480360381019061020891906111f2565b6105d7565b60405161021a9190611232565b60405180910390f35b61023d60048036038101906102389190611382565b610853565b60405161024a9190611232565b60405180910390f35b61026d60048036038101906102689190610f94565b610976565b60405161027d94939291906113fa565b60405180910390f35b61028e610ab6565b005b6102aa60048036038101906102a59190611173565b610c17565b005b6102c660048036038101906102c19190611173565b610d08565b6040516102d39190611232565b60405180910390f35b6000606080600360008581526020019081526020016000206000015460036000868152602001908152602001600020600101600360008781526020019081526020016000206002018180546103309061147c565b80601f016020809104026020016040519081016040528092919081815260200182805461035c9061147c565b80156103a95780601f1061037e576101008083540402835291602001916103a9565b820191906000526020600020905b81548152906001019060200180831161038c57829003601f168201915b505050505091508080546103bc9061147c565b80601f01602080910402602001604051908101604052809291908181526020018280546103e89061147c565b80156104355780601f1061040a57610100808354040283529160200191610435565b820191906000526020600020905b81548152906001019060200180831161041857829003601f168201915b505050505090509250925092509193909250565b60015481565b60045481565b3373ffffffffffffffffffffffffffffffffffffffff1661047461056a565b73ffffffffffffffffffffffffffffffffffffffff16146104ca576040517f08c379a00000000000000000000000000000000000000000000000000000000081526004016104c1906114fa565b60405180910390fd5b6104d46000610de3565b565b60025481565b600680546104e99061147c565b80601f01602080910402602001604051908101604052809291908181526020018280546105159061147c565b80156105625780601f1061053757610100808354040283529160200191610562565b820191906000526020600020905b81548152906001019060200180831161054557829003601f168201915b505050505081565b60008060009054906101000a900473ffffffffffffffffffffffffffffffffffffffff16905090565b60056020528060005260406000206000915090508060000154908060010160009054906101000a900460ff16908060010160019054906101000a900460ff16905083565b6000816012811161061d576040517f08c379a000000000000000000000000000000000000000000000000000000000815260040161061490611566565b60405180910390fd5b600560003373ffffffffffffffffffffffffffffffffffffffff1673ffffffffffffffffffffffffffffffffffffffff16815260200190815260200160002060010160009054906101000a900460ff16156106ad576040517f08c379a00000000000000000000000000000000000000000000000000000000081526004016106a4906115d2565b60405180910390fd5b600560003373ffffffffffffffffffffffffffffffffffffffff1673ffffffffffffffffffffffffffffffffffffffff16815260200190815260200160002060010160019054906101000a900460ff1661073c576040517f08c379a00000000000000000000000000000000000000000000000000000000081526004016107339061163e565b60405180910390fd5b83600360008681526020019081526020016000206000015414610794576040517f08c379a000000000000000000000000000000000000000000000000000000000815260040161078b906116aa565b60405180910390fd5b6001600560003373ffffffffffffffffffffffffffffffffffffffff1673ffffffffffffffffffffffffffffffffffffffff16815260200190815260200160002060010160006101000a81548160ff021916908315150217905550600360008581526020019081526020016000206003016000815480929190610816906116f9565b9190505550837fdcd6a5cd90707bfd61ed2fddae23e88c584cb5b78a0e9989710a59fd84c0a1f960405160405180910390a2600191505092915050565b60003373ffffffffffffffffffffffffffffffffffffffff1661087461056a565b73ffffffffffffffffffffffffffffffffffffffff16146108ca576040517f08c379a00000000000000000000000000000000000000000000000000000000081526004016108c1906114fa565b60405180910390fd5b600460008154809291906108dd906116f9565b9190505550604051806080016040528060045481526020018481526020018381526020016000815250600360006004548152602001908152602001600020600082015181600001556020820151816001019080519060200190610941929190610ea7565b50604082015181600201908051906020019061095e929190610ea7565b50606082015181600301559050506001905092915050565b600360205280600052604060002060009150905080600001549080600101805461099f9061147c565b80601f01602080910402602001604051908101604052809291908181526020018280546109cb9061147c565b8015610a185780601f106109ed57610100808354040283529160200191610a18565b820191906000526020600020905b8154815290600101906020018083116109fb57829003601f168201915b505050505090806002018054610a2d9061147c565b80601f0160208091040260200160405190810160405280929190818152602001828054610a599061147c565b8015610aa65780601f10610a7b57610100808354040283529160200191610aa6565b820191906000526020600020905b815481529060010190602001808311610a8957829003601f168201915b5050505050908060030154905084565b3373ffffffffffffffffffffffffffffffffffffffff16610ad561056a565b73ffffffffffffffffffffffffffffffffffffffff1614610b2b576040517f08c379a0000000000000000000000000000000000000000000000000000000008152600401610b22906114fa565b60405180910390fd5b42600154600254610b3c9190611742565b11610b7c576040517f08c379a0000000000000000000000000000000000000000000000000000000008152600401610b73906117e4565b60405180910390fd5b60005b600454811015610c145760036000828152602001908152602001600020600101604051610bac91906118a3565b60405180910390207fea2fdabfd052f5f50b64f2e526c74a8bdb8a2e87245c1619f913f1d0f05635866003600084815260200190815260200160002060030154604051610bf991906110ae565b60405180910390a28080610c0c906116f9565b915050610b7f565b50565b3373ffffffffffffffffffffffffffffffffffffffff16610c3661056a565b73ffffffffffffffffffffffffffffffffffffffff1614610c8c576040517f08c379a0000000000000000000000000000000000000000000000000000000008152600401610c83906114fa565b60405180910390fd5b600073ffffffffffffffffffffffffffffffffffffffff168173ffffffffffffffffffffffffffffffffffffffff161415610cfc576040517f08c379a0000000000000000000000000000000000000000000000000000000008152600401610cf39061192c565b60405180910390fd5b610d0581610de3565b50565b60003373ffffffffffffffffffffffffffffffffffffffff16610d2961056a565b73ffffffffffffffffffffffffffffffffffffffff1614610d7f576040517f08c379a0000000000000000000000000000000000000000000000000000000008152600401610d76906114fa565b60405180910390fd5b6001600560008473ffffffffffffffffffffffffffffffffffffffff1673ffffffffffffffffffffffffffffffffffffffff16815260200190815260200160002060010160016101000a81548160ff02191690831515021790555060019050919050565b60008060009054906101000a900473ffffffffffffffffffffffffffffffffffffffff169050816000806101000a81548173ffffffffffffffffffffffffffffffffffffffff021916908373ffffffffffffffffffffffffffffffffffffffff1602179055508173ffffffffffffffffffffffffffffffffffffffff168173ffffffffffffffffffffffffffffffffffffffff167f8be0079c531659141344cd1fd0a4f28419497f9722a3daafe3b4186f6b6457e060405160405180910390a35050565b828054610eb39061147c565b90600052602060002090601f016020900481019282610ed55760008555610f1c565b82601f10610eee57805160ff1916838001178555610f1c565b82800160010185558215610f1c579182015b82811115610f1b578251825591602001919060010190610f00565b5b509050610f299190610f2d565b5090565b5b80821115610f46576000816000905550600101610f2e565b5090565b6000604051905090565b600080fd5b600080fd5b6000819050919050565b610f7181610f5e565b8114610f7c57600080fd5b50565b600081359050610f8e81610f68565b92915050565b600060208284031215610faa57610fa9610f54565b5b6000610fb884828501610f7f565b91505092915050565b610fca81610f5e565b82525050565b600081519050919050565b600082825260208201905092915050565b60005b8381101561100a578082015181840152602081019050610fef565b83811115611019576000848401525b50505050565b6000601f19601f8301169050919050565b600061103b82610fd0565b6110458185610fdb565b9350611055818560208601610fec565b61105e8161101f565b840191505092915050565b600060608201905061107e6000830186610fc1565b81810360208301526110908185611030565b905081810360408301526110a48184611030565b9050949350505050565b60006020820190506110c36000830184610fc1565b92915050565b600060208201905081810360008301526110e38184611030565b905092915050565b600073ffffffffffffffffffffffffffffffffffffffff82169050919050565b6000611116826110eb565b9050919050565b6111268161110b565b82525050565b6000602082019050611141600083018461111d565b92915050565b6111508161110b565b811461115b57600080fd5b50565b60008135905061116d81611147565b92915050565b60006020828403121561118957611188610f54565b5b60006111978482850161115e565b91505092915050565b60008115159050919050565b6111b5816111a0565b82525050565b60006060820190506111d06000830186610fc1565b6111dd60208301856111ac565b6111ea60408301846111ac565b949350505050565b6000806040838503121561120957611208610f54565b5b600061121785828601610f7f565b925050602061122885828601610f7f565b9150509250929050565b600060208201905061124760008301846111ac565b92915050565b600080fd5b600080fd5b7f4e487b7100000000000000000000000000000000000000000000000000000000600052604160045260246000fd5b61128f8261101f565b810181811067ffffffffffffffff821117156112ae576112ad611257565b5b80604052505050565b60006112c1610f4a565b90506112cd8282611286565b919050565b600067ffffffffffffffff8211156112ed576112ec611257565b5b6112f68261101f565b9050602081019050919050565b82818337600083830152505050565b6000611325611320846112d2565b6112b7565b90508281526020810184848401111561134157611340611252565b5b61134c848285611303565b509392505050565b600082601f8301126113695761136861124d565b5b8135611379848260208601611312565b91505092915050565b6000806040838503121561139957611398610f54565b5b600083013567ffffffffffffffff8111156113b7576113b6610f59565b5b6113c385828601611354565b925050602083013567ffffffffffffffff8111156113e4576113e3610f59565b5b6113f085828601611354565b9150509250929050565b600060808201905061140f6000830187610fc1565b81810360208301526114218186611030565b905081810360408301526114358185611030565b90506114446060830184610fc1565b95945050505050565b7f4e487b7100000000000000000000000000000000000000000000000000000000600052602260045260246000fd5b6000600282049050600182168061149457607f821691505b602082108114156114a8576114a761144d565b5b50919050565b7f4f776e61626c653a2063616c6c6572206973206e6f7420746865206f776e6572600082015250565b60006114e4602083610fdb565b91506114ef826114ae565b602082019050919050565b60006020820190508181036000830152611513816114d7565b9050919050565b7f566f746572206973206e6f7420656c696769626c6520746f20766f74652e0000600082015250565b6000611550601e83610fdb565b915061155b8261151a565b602082019050919050565b6000602082019050818103600083015261157f81611543565b9050919050565b7f596f752063616e206f6e6c7920766f7465206f6e636521000000000000000000600082015250565b60006115bc601783610fdb565b91506115c782611586565b602082019050919050565b600060208201905081810360008301526115eb816115af565b9050919050565b7f556e617574686f72697a65640000000000000000000000000000000000000000600082015250565b6000611628600c83610fdb565b9150611633826115f2565b602082019050919050565b600060208201905081810360008301526116578161161b565b9050919050565b7f436f6e74657374616e7420646f65736e27742065786973740000000000000000600082015250565b6000611694601883610fdb565b915061169f8261165e565b602082019050919050565b600060208201905081810360008301526116c381611687565b9050919050565b7f4e487b7100000000000000000000000000000000000000000000000000000000600052601160045260246000fd5b600061170482610f5e565b91507fffffffffffffffffffffffffffffffffffffffffffffffffffffffffffffffff821415611737576117366116ca565b5b600182019050919050565b600061174d82610f5e565b915061175883610f5e565b9250827fffffffffffffffffffffffffffffffffffffffffffffffffffffffffffffffff0382111561178d5761178c6116ca565b5b828201905092915050565b7f54686520656c656374696f6e206973207374696c6c206f6e676f696e67000000600082015250565b60006117ce601d83610fdb565b91506117d982611798565b602082019050919050565b600060208201905081810360008301526117fd816117c1565b9050919050565b600081905092915050565b60008190508160005260206000209050919050565b600081546118318161147c565b61183b8186611804565b9450600182166000811461185657600181146118675761189a565b60ff1983168652818601935061189a565b6118708561180f565b60005b8381101561189257815481890152600182019150602081019050611873565b838801955050505b50505092915050565b60006118af8284611824565b915081905092915050565b7f4f776e61626c653a206e6577206f776e657220697320746865207a65726f206160008201527f6464726573730000000000000000000000000000000000000000000000000000602082015250565b6000611916602683610fdb565b9150611921826118ba565b604082019050919050565b6000602082019050818103600083015261194581611909565b905091905056fea26469706673582212200e79b75d3a0e12dc00b5b4e732152e95c2e1cec0493226e79d09abc44c3eaa5664736f6c63430008090033",
  "immutableReferences": {},
  "source": "// SPDX-License-Identifier: MIT\npragma solidity >=0.4.22 <0.9.0;\nimport \"./BallotInterface.sol\";\nimport \"./utils/Ownable.sol\";\nimport \"./utils/Helpers.sol\";\n\ncontract Ballot is Ownable, BallotInterface, Helper {\n    uint256 public electionDuration;\n    uint256 public startTime;\n    struct Voter {\n        uint256 age;\n        bool voted;\n        bool votable;\n    }\n\n    struct Contestant {\n        uint256 id;\n        string name;\n        string party;\n        uint256 votesCount;\n    }\n\n    mapping(uint256 => Contestant) public contestants;\n    uint256 public contestantCount;\n\n    mapping(address => Voter) public voters;\n    string public electionName;\n\n    constructor(string memory _electionName, uint256 _electionDuration) {\n        electionName = _electionName;\n        electionDuration = _electionDuration;\n        startTime = block.timestamp;\n        addContestant(\"Gift Opia\", \"SLN\");\n        addContestant(\"Buhari Mohammed\", \"APC\");\n        addContestant(\"Atiku Abubakarr\", \"PDP\");\n    }\n\n    function addContestant(string memory _name, string memory _party)\n        public\n        virtual\n        override\n        onlyOwner\n        returns (bool)\n    {\n        contestantCount++;\n        contestants[contestantCount] = Contestant(\n            contestantCount,\n            _name,\n            _party,\n            0\n        );\n        return true;\n    }\n\n    function getContestant(uint256 _id) view public returns(uint256, string memory, string memory) {\n        return(contestants[_id].id, contestants[_id].name, contestants[_id].party);\n    }\n\n    function authorizeVoter(address person)\n        public\n        virtual\n        override\n        onlyOwner\n        returns (bool)\n    {\n        voters[person].votable = true;\n        return true;\n    }\n\n    function vote(uint256 contestantId, uint256 _age)\n        public\n        virtual\n        override\n        Votable(_age)\n        returns (bool)\n    {\n        require(!voters[msg.sender].voted, \"You can only vote once!\");\n        require(voters[msg.sender].votable, \"Unauthorized\");\n        require(contestants[contestantId].id == contestantId, \"Contestant doesn't exist\");\n\n        voters[msg.sender].voted = true;\n        contestants[contestantId].votesCount++;\n\n        emit Vote(contestantId);\n\n        return true;\n    }\n\n    function end() public virtual override onlyOwner {\n        require(\n            startTime + electionDuration > block.timestamp,\n            \"The election is still ongoing\"\n        );\n\n        for (uint256 i = 0; i < contestantCount; i++) {\n            emit RevealResult(contestants[i].name, contestants[i].votesCount);\n        }\n    }\n}\n",
  "sourcePath": "C:\\Users\\HP\\Desktop\\voter_sol\\contracts\\Ballot.sol",
  "compiler": {
    "name": "solc",
    "version": "0.8.9+commit.e5eed63a.Emscripten.clang"
  },
  "schemaVersion": "3.4.3",
  "updatedAt": "2021-11-09T18:58:16.402Z",
  "devdoc": {
    "kind": "dev",
    "methods": {
      "owner()": {
        "details": "Returns the address of the current owner."
      },
      "renounceOwnership()": {
        "details": "Leaves the contract without owner. It will not be possible to call `onlyOwner` functions anymore. Can only be called by the current owner. NOTE: Renouncing ownership will leave the contract without an owner, thereby removing any functionality that is only available to the owner."
      },
      "transferOwnership(address)": {
        "details": "Transfers ownership of the contract to a new account (`newOwner`). Can only be called by the current owner."
      }
    },
    "version": 1
  },
  "userdoc": {
    "kind": "user",
    "methods": {},
    "version": 1
  }
}